{
  "_format": "hh-sol-artifact-1",
  "contractName": "Auction",
  "sourceName": "contracts/Auction.sol",
  "abi": [
    {
      "inputs": [
        {
          "internalType": "uint256",
          "name": "_biddingTime",
          "type": "uint256"
        },
        {
          "internalType": "address payable",
          "name": "_beneficiary",
          "type": "address"
        }
      ],
      "stateMutability": "nonpayable",
      "type": "constructor"
    },
    {
      "anonymous": false,
      "inputs": [
        {
          "indexed": false,
          "internalType": "address",
          "name": "winner",
          "type": "address"
        },
        {
          "indexed": false,
          "internalType": "uint256",
          "name": "amount",
          "type": "uint256"
        }
      ],
      "name": "auctionEnded",
      "type": "event"
    },
    {
      "anonymous": false,
      "inputs": [
        {
          "indexed": false,
          "internalType": "address",
          "name": "bidder",
          "type": "address"
        },
        {
          "indexed": false,
          "internalType": "uint256",
          "name": "amount",
          "type": "uint256"
        }
      ],
      "name": "highestBidIncreased",
      "type": "event"
    },
    {
      "inputs": [],
      "name": "auctionCancel",
      "outputs": [],
      "stateMutability": "nonpayable",
      "type": "function"
    },
    {
      "inputs": [],
      "name": "auctionEnd",
      "outputs": [],
      "stateMutability": "nonpayable",
      "type": "function"
    },
    {
      "inputs": [],
      "name": "auctionEndTime",
      "outputs": [
        {
          "internalType": "uint256",
          "name": "",
          "type": "uint256"
        }
      ],
      "stateMutability": "view",
      "type": "function"
    },
    {
      "inputs": [],
      "name": "auctionState",
      "outputs": [
        {
          "internalType": "enum Auction.Auc_State",
          "name": "",
          "type": "uint8"
        }
      ],
      "stateMutability": "view",
      "type": "function"
    },
    {
      "inputs": [],
      "name": "beneficiary",
      "outputs": [
        {
          "internalType": "address payable",
          "name": "",
          "type": "address"
        }
      ],
      "stateMutability": "view",
      "type": "function"
    },
    {
      "inputs": [],
      "name": "bid",
      "outputs": [],
      "stateMutability": "payable",
      "type": "function"
    },
    {
      "inputs": [],
      "name": "highestBidder",
      "outputs": [
        {
          "internalType": "address",
          "name": "",
          "type": "address"
        }
      ],
      "stateMutability": "view",
      "type": "function"
    },
    {
      "inputs": [],
      "name": "highestbid",
      "outputs": [
        {
          "internalType": "uint256",
          "name": "",
          "type": "uint256"
        }
      ],
      "stateMutability": "view",
      "type": "function"
    },
    {
      "inputs": [],
      "name": "withdraw",
      "outputs": [],
      "stateMutability": "payable",
      "type": "function"
    }
  ],
  "bytecode": "0x60806040523480156200001157600080fd5b506040516200146438038062001464833981810160405281019062000037919062000166565b6000600460006101000a81548160ff0219169083600281111562000060576200005f620001ad565b5b0217905550806000806101000a81548173ffffffffffffffffffffffffffffffffffffffff021916908373ffffffffffffffffffffffffffffffffffffffff1602179055508142620000b391906200020b565b600181905550505062000246565b600080fd5b6000819050919050565b620000db81620000c6565b8114620000e757600080fd5b50565b600081519050620000fb81620000d0565b92915050565b600073ffffffffffffffffffffffffffffffffffffffff82169050919050565b60006200012e8262000101565b9050919050565b620001408162000121565b81146200014c57600080fd5b50565b600081519050620001608162000135565b92915050565b6000806040838503121562000180576200017f620000c1565b5b60006200019085828601620000ea565b9250506020620001a3858286016200014f565b9150509250929050565b7f4e487b7100000000000000000000000000000000000000000000000000000000600052602160045260246000fd5b7f4e487b7100000000000000000000000000000000000000000000000000000000600052601160045260246000fd5b60006200021882620000c6565b91506200022583620000c6565b925082820190508082111562000240576200023f620001dc565b5b92915050565b61120e80620002566000396000f3fe6080604052600436106100865760003560e01c80633ad08463116100595780633ad08463146100ee5780633ccfd60b146101195780634b449cba146101235780637fb450991461014e57806391f901571461017957610086565b8063103f54571461008b5780631998aeef146100a25780632a24f46c146100ac57806338af3eed146100c3575b600080fd5b34801561009757600080fd5b506100a06101a4565b005b6100aa610319565b005b3480156100b857600080fd5b506100c1610647565b005b3480156100cf57600080fd5b506100d8610927565b6040516100e59190610bd7565b60405180910390f35b3480156100fa57600080fd5b5061010361094b565b6040516101109190610c0b565b60405180910390f35b610121610951565b005b34801561012f57600080fd5b50610138610b57565b6040516101459190610c0b565b60405180910390f35b34801561015a57600080fd5b50610163610b5d565b6040516101709190610c9d565b60405180910390f35b34801561018557600080fd5b5061018e610b70565b60405161019b9190610cd9565b60405180910390f35b60008054906101000a900473ffffffffffffffffffffffffffffffffffffffff1673ffffffffffffffffffffffffffffffffffffffff163373ffffffffffffffffffffffffffffffffffffffff1614610232576040517f08c379a000000000000000000000000000000000000000000000000000000000815260040161022990610d51565b60405180910390fd5b6001544210610276576040517f08c379a000000000000000000000000000000000000000000000000000000000815260040161026d90610dbd565b60405180910390fd5b6000600281111561028a57610289610c26565b5b600460009054906101000a900460ff1660028111156102ac576102ab610c26565b5b146102ec576040517f08c379a00000000000000000000000000000000000000000000000000000000081526004016102e390610e29565b60405180910390fd5b6002600460006101000a81548160ff0219169083600281111561031257610311610c26565b5b0217905550565b60008054906101000a900473ffffffffffffffffffffffffffffffffffffffff1673ffffffffffffffffffffffffffffffffffffffff163373ffffffffffffffffffffffffffffffffffffffff16036103a7576040517f08c379a000000000000000000000000000000000000000000000000000000000815260040161039e90610e95565b60405180910390fd5b60015442106103eb576040517f08c379a00000000000000000000000000000000000000000000000000000000081526004016103e290610dbd565b60405180910390fd5b600060028111156103ff576103fe610c26565b5b600460009054906101000a900460ff16600281111561042157610420610c26565b5b14610461576040517f08c379a000000000000000000000000000000000000000000000000000000000815260040161045890610f01565b60405180910390fd5b60035434111561060a576000600560003373ffffffffffffffffffffffffffffffffffffffff1673ffffffffffffffffffffffffffffffffffffffff168152602001908152602001600020541115610540576000600560003373ffffffffffffffffffffffffffffffffffffffff1673ffffffffffffffffffffffffffffffffffffffff1681526020019081526020016000205490503373ffffffffffffffffffffffffffffffffffffffff166108fc829081150290604051600060405180830381858888f1935050505015801561053d573d6000803e3d6000fd5b50505b34600560003373ffffffffffffffffffffffffffffffffffffffff1673ffffffffffffffffffffffffffffffffffffffff1681526020019081526020016000208190555033600260006101000a81548173ffffffffffffffffffffffffffffffffffffffff021916908373ffffffffffffffffffffffffffffffffffffffff160217905550346003819055507fd8f1dcefca138e7252b01cd1477fab84d8763d9b0c50b16805e3190c1c393a3433346040516105fd929190610f21565b60405180910390a1610645565b6040517f08c379a000000000000000000000000000000000000000000000000000000000815260040161063c90610fbc565b60405180910390fd5b565b60008054906101000a900473ffffffffffffffffffffffffffffffffffffffff1673ffffffffffffffffffffffffffffffffffffffff163373ffffffffffffffffffffffffffffffffffffffff16146106d5576040517f08c379a00000000000000000000000000000000000000000000000000000000081526004016106cc90610d51565b60405180910390fd5b6002808111156106e8576106e7610c26565b5b600460009054906101000a900460ff16600281111561070a57610709610c26565b5b148061074957506001600281111561072557610724610c26565b5b600460009054906101000a900460ff16600281111561074757610746610c26565b5b145b15610789576040517f08c379a000000000000000000000000000000000000000000000000000000000815260040161078090611028565b60405180910390fd5b60015442116107cd576040517f08c379a00000000000000000000000000000000000000000000000000000000081526004016107c4906110ba565b60405180910390fd5b6001600460006101000a81548160ff021916908360028111156107f3576107f2610c26565b5b02179055507f6e0e2174dbf7b77c08b6f9a2799b9feda84a6d54a5644864582040100a47d4c5600260009054906101000a900473ffffffffffffffffffffffffffffffffffffffff1660035460405161084d929190610f21565b60405180910390a160008054906101000a900473ffffffffffffffffffffffffffffffffffffffff1673ffffffffffffffffffffffffffffffffffffffff166108fc6003549081150290604051600060405180830381858888f193505050501580156108bd573d6000803e3d6000fd5b50600060056000600260009054906101000a900473ffffffffffffffffffffffffffffffffffffffff1673ffffffffffffffffffffffffffffffffffffffff1673ffffffffffffffffffffffffffffffffffffffff16815260200190815260200160002081905550565b60008054906101000a900473ffffffffffffffffffffffffffffffffffffffff1681565b60035481565b60028081111561096457610963610c26565b5b600460009054906101000a900460ff16600281111561098657610985610c26565b5b14806109c55750600160028111156109a1576109a0610c26565b5b600460009054906101000a900460ff1660028111156109c3576109c2610c26565b5b145b610a04576040517f08c379a00000000000000000000000000000000000000000000000000000000081526004016109fb9061114c565b60405180910390fd5b6000600560003373ffffffffffffffffffffffffffffffffffffffff1673ffffffffffffffffffffffffffffffffffffffff1681526020019081526020016000205490506000811115610a9b576000600560003373ffffffffffffffffffffffffffffffffffffffff1673ffffffffffffffffffffffffffffffffffffffff16815260200190815260200160002081905550610ad6565b6040517f08c379a0000000000000000000000000000000000000000000000000000000008152600401610acd906111b8565b60405180910390fd5b3373ffffffffffffffffffffffffffffffffffffffff166108fc829081150290604051600060405180830381858888f19350505050610b545780600560003373ffffffffffffffffffffffffffffffffffffffff1673ffffffffffffffffffffffffffffffffffffffff168152602001908152602001600020819055505b50565b60015481565b600460009054906101000a900460ff1681565b600260009054906101000a900473ffffffffffffffffffffffffffffffffffffffff1681565b600073ffffffffffffffffffffffffffffffffffffffff82169050919050565b6000610bc182610b96565b9050919050565b610bd181610bb6565b82525050565b6000602082019050610bec6000830184610bc8565b92915050565b6000819050919050565b610c0581610bf2565b82525050565b6000602082019050610c206000830184610bfc565b92915050565b7f4e487b7100000000000000000000000000000000000000000000000000000000600052602160045260246000fd5b60038110610c6657610c65610c26565b5b50565b6000819050610c7782610c55565b919050565b6000610c8782610c69565b9050919050565b610c9781610c7c565b82525050565b6000602082019050610cb26000830184610c8e565b92915050565b6000610cc382610b96565b9050919050565b610cd381610cb8565b82525050565b6000602082019050610cee6000830184610cca565b92915050565b600082825260208201905092915050565b7f43616c6c6572206d7573742062652061756374696f6e65720000000000000000600082015250565b6000610d3b601883610cf4565b9150610d4682610d05565b602082019050919050565b60006020820190508181036000830152610d6a81610d2e565b9050919050565b7f5468652041756374696f6e2054696d65204973204f7665720000000000000000600082015250565b6000610da7601883610cf4565b9150610db282610d71565b602082019050919050565b60006020820190508181036000830152610dd681610d9a565b9050919050565b7f5468652041756374696f6e20697320616c72656164792053746f707065640000600082015250565b6000610e13601e83610cf4565b9150610e1e82610ddd565b602082019050919050565b60006020820190508181036000830152610e4281610e06565b9050919050565b7f4f776e65722063616e6e6f742062696400000000000000000000000000000000600082015250565b6000610e7f601083610cf4565b9150610e8a82610e49565b602082019050919050565b60006020820190508181036000830152610eae81610e72565b9050919050565b7f5468652041756374696f6e204973206e6f742052756e6e696e67000000000000600082015250565b6000610eeb601a83610cf4565b9150610ef682610eb5565b602082019050919050565b60006020820190508181036000830152610f1a81610ede565b9050919050565b6000604082019050610f366000830185610cca565b610f436020830184610bfc565b9392505050565b7f736f7272792c2074686520626964206973206e6f74206869676820656e6f756760008201527f6821000000000000000000000000000000000000000000000000000000000000602082015250565b6000610fa6602283610cf4565b9150610fb182610f4a565b604082019050919050565b60006020820190508181036000830152610fd581610f99565b9050919050565b7f7468652061756374696f6e20697320616c7265616479206f7665722100000000600082015250565b6000611012601c83610cf4565b915061101d82610fdc565b602082019050919050565b6000602082019050818103600083015261104181611005565b9050919050565b7f5468652041756374696f6e2043616e6e6f7420456e64204265666f726520546860008201527f65205370656369666965642054696d6500000000000000000000000000000000602082015250565b60006110a4603083610cf4565b91506110af82611048565b604082019050919050565b600060208201905081810360008301526110d381611097565b9050919050565b7f596f752043616e6e6f74205769746864726177207768656e207468652061756360008201527f74696f6e2069732052756e6e696e670000000000000000000000000000000000602082015250565b6000611136602f83610cf4565b9150611141826110da565b604082019050919050565b6000602082019050818103600083015261116581611129565b9050919050565b7f4e6f20616d6f756e7420746f2077697468647261770000000000000000000000600082015250565b60006111a2601583610cf4565b91506111ad8261116c565b602082019050919050565b600060208201905081810360008301526111d181611195565b905091905056fea2646970667358221220659688acbe13855fb2ff50bda6d82067d7969ca6a3ae1c94ed3e9c94ab0099b664736f6c63430008110033",
  "linkReferences": {},
  "deployedLinkReferences": {}
}